:100000000C9463000C948B000C948B000C948B006C
:100010000C948B000C948B000C948B000C94221E7F
:100020000C948B000C948B000C948B000C948B0024
:100030000C948B000C948B000C948B000C948B0014
:100040000C940C0E0C948B000C94AB100C94F910C7
:100050000C948B000C948B000C948B000C948B00F4
:100060000C948B000C948B000000000024002700EF
:100070002A0000000000250028002B0000000000DE
:1000800023002600290004040404040404040202DA
:100090000202020203030303030301020408102007
:1000A0004080010204081020010204081020000012
:1000B0000007000201000003040600000000000029
:1000C00000008B01651211241FBECFEFD8E0DEBF08
:1000D000CDBF13E0A0E0B1E0EEE7F2E402C005908E
:1000E0000D92A83CB107D9F715E0A8ECB3E001C028
:1000F0001D92A03CB107E1F710E0C6ECD0E004C0CF
:100100002297FE010E943921C23CD107C9F70E9403
:10011000FD0D0C943D210C940000EF92FF920F9383
:10012000DF93CF93CDB7DEB760970FB6F894DEBFFD
:100130000FBECDBFA82F002309F461C07E01089433
:10014000E11CF11C88E0F70111928A95E9F72983F7
:100150003A834B835C836D837E83AF83988780E291
:10016000801BE82FFF27E7FDF0954D815E816F81B1
:100170007885181684F01D861E861F86188A8827A3
:1001800099278E1B9F0B04C07695679557954795C9
:100190008A95D2F728C0202F332727FD3095DB0121
:1001A000CA01022E04C0B695A795979587950A9423
:1001B000D2F78D879E87AF87B88B04C0440F551F39
:1001C000661F771FEA95D2F789819A81AB81BC813E
:1001D00004C0B695A795979587952A95D2F7482B91
:1001E000592B6A2B7B2B49875A876B877C872985FC
:1001F0003A854B855C856D857E85AF8598898A2F8C
:1002000060960FB6F894DEBF0FBECDBFCF91DF91E1
:100210000F91FF90EF900895EF92FF920F93DF936D
:10022000CF93CDB7DEB760970FB6F894DEBF0FBEA1
:10023000CDBFA82F002309F461C07E010894E11C02
:10024000F11C88E0F70111928A95E9F729833A8336
:100250004B835C836D837E83AF83988780E2801BB2
:10026000E82FFF27E7FDF09549815A816B817C815A
:10027000181684F019861A861B861C8688279927EB
:100280008E1B9F0B04C0440F551F661F771F8A9556
:10029000D2F728C0202F332727FD3095DB01CA0174
:1002A000022E04C0880F991FAA1FBB1F0A94D2F701
:1002B00089879A87AB87BC8704C0769567955795E1
:1002C0004795EA95D2F78D819E81AF81B88504C0AC
:1002D000880F991FAA1FBB1F2A95D2F7482B592BAD
:1002E0006A2B7B2B4D875E876F87788B29853A85B4
:1002F0004B855C856D857E85AF8598898A2F609654
:100300000FB6F894DEBF0FBECDBFCF91DF910F9136
:10031000FF90EF900895CF92EF920F938AE194E0CF
:1003200068E070E00E948D1689E294E062E141E1AC
:1003300020E10FE05EE0E52E3DE0C32E0E940116B5
:100340000F91EF90CF9008958BE060E00E94C10F75
:100350008AE061E00E94C10F8CE061E00E94C10F61
:100360000E94540E6093E2037093E3038093E403CE
:100370009093E50381E08093CA0308958BE061E0E8
:100380000E94C10F8AE060E00E94C10F8CE061E032
:100390000E94C10F0E94540E6093E2037093E30326
:1003A0008093E4039093E50381E08093CA0308956A
:1003B00084E060E00E94C10F209105032F7B87E05D
:1003C00063E041E00E94681084E061E00E94C10F98
:1003D00068E270E080E090E00E94620E0895EF9283
:1003E000FF920F931F93CF93DF937C018B01C0E0AB
:1003F000D0E0BE016E0D7F1DF801EC0FFD1F81EFF7
:1004000094E040810E9436142196C430D10589F7CA
:1004100084E090E0DF91CF911F910F91FF90EF90DA
:1004200008959C01FB0181EF94E0B90140810E9495
:10043000361481E090E008950F931F939C018B0187
:1004400081EF94E0B9010E942F14F801808381E0CC
:1004500090E01F910F910895EF92FF920F931F93D9
:10046000CF93DF93AC019B01EB0164E0E62EF12C0E
:10047000E20EF31E8A010F5F1F4F81EF94E0BA0175
:100480000E942F148993A801CE15DF0599F784E007
:1004900090E0DF91CF911F910F91FF90EF90089521
:1004A00089E294E060E040E00E94141589E294E063
:1004B00060E071E00E9419148AE194E06BE174E05D
:1004C0000E94AD1D892BC1F380911F0490912004DF
:1004D000A0912104B09122048093120490931304FC
:1004E000A0931404B093150486E590E062E174E0F3
:1004F0000E94EF0160E971E080E090E00E94620EEE
:1005000008958091C903813059F489E294E060E054
:1005100041E00E94141589E294E060E171E034C08A
:100520008091050384FF0BC089E294E068E041E01C
:100530000E94141589E294E061E271E00AC089E248
:1005400094E068E041E00E94141589E294E06AE2D8
:1005500071E00E9419148091050385FF0BC089E2A8
:1005600094E060E041E00E94141589E294E063E3C6
:1005700071E00AC089E294E060E041E00E94141555
:1005800089E294E06BE371E00E9419140895809170
:10059000050390E08F70907082309105D9F0833020
:1005A00091051CF40197E1F528C00497C9F589E28B
:1005B00094E00E94431589E294E060E040E00E94EC
:1005C000141589E294E068E471E00E9419146091C6
:1005D000CE0338C089E294E00E94431589E294E09A
:1005E00060E040E00E94141589E294E06DE471E05F
:1005F0000E9419146091CF0325C089E294E00E9403
:10060000431589E294E060E040E00E94141589E21D
:1006100094E062E571E00E9419146091D00312C069
:1006200089E294E00E94431589E294E060E040E0B2
:100630000E94141589E294E063E471E00E941914A9
:100640006091CD038CE0689FB0011124625D7C4F06
:1006500089E294E00E94191408950E94C7020E9442
:10066000810208951F93182F84E060E00E94C10F5B
:1006700087E063E041E0212F0E94681084E061E0A0
:100680000E94C10F0E942D031F9108958091C903FC
:1006900090910503813011F49F7B01C09064909389
:1006A00005038091050390E00E943203089568E2FB
:1006B00070E080E090E00E94620E0E944603089580
:1006C000809106038230E0F00E94D80180910603F9
:1006D00081508093060380E090E066E073E00E9422
:1006E00011028091060390E065E073E00E941C0215
:1006F0008091050390E08F7B0E9432030E94570394
:100700000895809106038430E0F40E94D80180911E
:1007100006038F5F8093060380E090E066E073E05D
:100720000E9411028091060390E065E073E00E9450
:100730001C028091050390E08F7B0E9432030E948F
:10074000570308950E94D8018091050390E28927FC
:10075000809305038091060390E065E073E00E94BA
:1007600011028091050390E08F7B0E9432030E946A
:10077000570308950E94D8018091050390E18927CD
:10078000809305038091060390E065E073E00E948A
:1007900011028091050390E08F7B0E9432030E943A
:1007A000570308958091C90390910503882381F42C
:1007B00081E08093C9039F7B909305038EE0809333
:1007C0002D0381E090E090932C0380932B0309C0CC
:1007D0001092C90390649093050386E061E00E9443
:1007E000C10F8091050390E00E943203089589E2D1
:1007F00094E060E040E00E94141589E294E067E52F
:1008000071E00E9419148AE194E06BE174E00E94A7
:10081000AD1D892BC1F380911F0490912004A091FC
:100820002104B091220480930E0490930F04A093AE
:100830001004B093110482E590E06EE074E00E9431
:10084000EF0189E294E00E94431560ED77E080E0DB
:1008500090E00E94620E8AE194E00E949216089550
:1008600089E294E060E040E00E94141589E294E09F
:1008700066E671E00E9419148AE194E06BE174E08D
:100880000E94AD1D892BC1F380911F04909120041B
:10089000A0912104B0912204809306049093070450
:1008A000A0930804B09309048AE490E066E074E041
:1008B0000E94EF0189E294E00E94431560ED77E029
:1008C00080E090E00E94620E8AE194E00E9492161D
:1008D000089589E294E060E040E00E94141589E206
:1008E00094E065E771E00E9419148AE194E06BE1FD
:1008F00074E00E94AD1D892BC1F380911F0490917B
:100900002004A0912104B091220480930A049093C2
:100910000B04A0930C04B0930D048EE490E06AE005
:1009200074E00E94EF0189E294E00E94431560EDBB
:1009300077E080E090E00E94620E8AE194E00E94FD
:100940009216089589E294E060E040E00E94141558
:1009500089E294E064E871E00E9419148AE194E06D
:100960006BE174E00E94AD1D892BC1F380911F04DF
:1009700090912004A0912104B0912204809302045C
:1009800090930304A0930404B093050486E490E0DC
:1009900062E074E00E94EF0189E294E00E94431556
:1009A00060ED77E080E090E00E94620E8AE194E0E2
:1009B0000E949216089589E294E060E040E00E946F
:1009C000141589E294E065E971E00E9419148AE146
:1009D00094E06BE174E00E94AD1D892BC1F380911E
:1009E0001F0490912004A0912104B09122048093CF
:1009F000FE039093FF03A0930004B093010482E4EC
:100A000090E06EEF73E00E94EF0189E294E00E94B3
:100A1000431560ED77E080E090E00E94620E8AE18D
:100A200094E00E949216089589E294E060E040E02C
:100A30000E94141589E294E066EA71E00E9419149C
:100A400089E294E060E041E00E94141589E294E0BC
:100A500065EB71E00E9419148AE194E06BE174E0A7
:100A60000E94AD1D892BC1F380911F049091200439
:100A7000A0912104B09122048093F6039093F70390
:100A8000A093F803B093F9038AE390E066EF73E074
:100A90000E94EF018AE194E00E9492168AE194E0BC
:100AA0006BE174E00E94AD1D892BC1F380911F049E
:100AB00090912004A0912104B09122048093FA0324
:100AC0009093FB03A093FC03B093FD038EE390E0AF
:100AD0006AEF73E00E94EF0189E294E00E944315FF
:100AE00060ED77E080E090E00E94620E8AE194E0A1
:100AF0000E949216089589E294E00E94431589E2CB
:100B000094E060E040E00E94141589E294E062EC19
:100B100071E00E94191489E294E060E041E00E94D3
:100B2000141589E294E065EB71E00E9419148AE1E2
:100B300094E06BE174E00E94AD1D892BC1F38091BC
:100B40001F0490912004A0912104B091220480936D
:100B5000EE039093EF03A093F003B093F10382E3CD
:100B600090E06EEE73E00E94EF018AE194E00E9453
:100B700092168AE194E06BE174E00E94AD1D892B2E
:100B8000C1F380911F0490912004A0912104B091A1
:100B900022048093F2039093F303A093F403B093A1
:100BA000F50386E390E062EF73E00E94EF0189E2D3
:100BB00094E00E94431560ED77E080E090E00E94B1
:100BC000620E8AE194E00E94921608950F931F939B
:100BD0000E947B050E9414050E94DB040E94A2046F
:100BE0000E9469040E9430040E94F7030E94500290
:100BF0000FEC14E0C80161ED71E00E9419144091FE
:100C0000EE035091EF036091F0037091F103C8017E
:100C100020E130E00E94F213C80161EE71E00E9411
:100C200019144091F2035091F3036091F403709111
:100C3000F503C80120E130E00E94F213C80168EF1B
:100C400071E00E9419144091F6035091F7036091EE
:100C5000F8037091F903C80120E130E00E94F2131B
:100C6000C8016AE072E00E9419144091FA035091A1
:100C7000FB036091FC037091FD03C80120E130E0AB
:100C80000E94F213C80163E272E00E9419144091BD
:100C9000FE035091FF036091000470910104C801AC
:100CA00020E130E00E94F213C80162E372E00E948A
:100CB000191440910204509103046091040470914E
:100CC0000504C80120E130E00E94F213C80163E48A
:100CD00072E00E94191440910A0450910B04609133
:100CE0000C0470910D04C80120E130E00E94F21361
:100CF000C8016EE472E00E941914409106045091FC
:100D000007046091080470910904C80120E130E0F3
:100D10000E94F213C8016CE572E00E941914409120
:100D20000E0450910F046091100470911104C801D9
:100D300020E130E00E94F213C80167E672E00E94F1
:100D4000191440911204509113046091140470918D
:100D50001504C80120E130E00E94F21309E214E01A
:100D6000C8010E944315C80160E040E00E941415CC
:100D7000C80168E772E00E9419146CED75E080E02C
:100D800090E00E94620E0C9400001F910F91089554
:100D900080910B038038C1F410920B031092C903A9
:100DA00089E294E00E940C1589E060E00E94C10F86
:100DB00086E061E070E00E94220F0E94D80180E08E
:100DC00090E00E943203089580E880930B030C9416
:100DD00000000895EF92FF920F931F937B018C0107
:100DE0000E94540E2091EA033091EB034091EC03F2
:100DF0005091ED03621B730B840B950B6D52714088
:100E00008040904008F4C7C00E94540E6093EA03EB
:100E10007093EB038093EC039093ED0380910604B1
:100E200090910704A0910804B0910904E816F9060E
:100E30000A071B0711F40E94C80680910B03882340
:100E400009F42FC18FEC94E069E872E00E94191454
:100E50008FEC94E0B801A70120E130E00E94F2138A
:100E600080910A0490910B04A0910C04B0910D04A0
:100E7000E816F9060A071B0791F40E94D203809135
:100E80000A0490910B04A0910C04B0910D0480937E
:100E9000160490931704A0931804B093190480913A
:100EA0000E0490910F04A0911004B0911104E81663
:100EB000F9060A071B0791F40E94BA0380910E04F9
:100EC00090910F04A0911004B09111048093160426
:100ED00090931704A0931804B093190480911204FE
:100EE00090911304A0911404B0911504E816F9062A
:100EF0000A071B0791F40E94A203809112049091AB
:100F00001304A0911404B0911504809316049093D7
:100F10001704A0931804B09319048091FE039091D4
:100F2000FF03A0910004B0910104E816F9060A0736
:100F30001B0791F40E9481038091FE039091FF03AF
:100F4000A0910004B09101048093160490931704BB
:100F5000A0931804B09319048091020490910304A3
:100F6000A0910404B0910504E816F9060A071B07CE
:100F700091F40E9460038091020490910304A09177
:100F80000404B09105048093160490931704A09371
:100F90001804B09319048091EE039091EF03A0918F
:100FA000F003B091F103E816F9060A071B0791F464
:100FB0000E94BE018091EE039091EF03A091F00397
:100FC000B091F1038093160490931704A093180432
:100FD000B09319048091F6039091F703A091F80360
:100FE000B091F903E816F9060A071B0791F40E946D
:100FF000A4018091F6039091F703A091F803B091BA
:10100000F9038093160490931704A0931804B093E7
:10101000190420911604309117044091180450913E
:1010200019048091EE039091EF03A091F003B09129
:10103000F103281739074A075B0779F48091F20317
:101040009091F303A091F403B091F503E816F9062B
:101050000A071B0711F40E94BE012091160430916B
:10106000170440911804509119048091F60390914F
:10107000F703A091F803B091F903281739074A073D
:101080005B0779F48091FA039091FB03A091FC0334
:10109000B091FD03E816F9060A071B0711F40E9438
:1010A000A4018AE194E00E9492161F910F91FF9093
:1010B000EF90089583E10E94000F9093CC038093FA
:1010C000CB038D5A93400CF03AC10E94540E6093AA
:1010D000D6037093D7038093D8039093D9036EE11E
:1010E00070E080E090E00E94620E83E10E94000FB9
:1010F0009093CC038093CB0383E10E94000F8D5A21
:101100009340D4F380910B03882329F480E88093E3
:101110000B030C9400000E94540E6093DA0370934A
:10112000DB038093DC039093DD032091D6033091A1
:10113000D7034091D8035091D903621B730B840BE2
:10114000950B693223E2720720E0820720E09207C4
:10115000D8F12091CB033091CC038091140390916E
:101160001503821793078CF480911603909117034F
:101170002817390754F481EF94E065E070E040E00F
:101180000E9436140C9400000895809110039091F1
:101190001103821793070CF0D2C080911203909133
:1011A0001303281739070CF0CAC040E08091D1031F
:1011B000882309F441E081EF94E06AE070E00E9446
:1011C00036140C94000008952091CB033091CC0389
:1011D000695E73408040904008F45CC080911803C1
:1011E000909119038217930754F480911A039091F8
:1011F0001B03281739071CF40E94C8060895809124
:101200001403909115038217930744F480911603F9
:1012100090911703281739070CF491C0809110039F
:10122000909111038217930754F4809112039091C7
:101230001303281739071CF40E94E60508958091CE
:101240000C0390910D03821793070CF078C08091E6
:101250000E0390910F03281739070CF070C080918E
:101260000603682F70E0DB011197FD01E353FC4F8B
:1012700080818F5F80838A3009F410826B5F7F4F9B
:10128000A353BC4F81EF94E04C910E9436140E940E
:101290002D030895809118039091190382179307E5
:1012A00054F480911A0390911B03281739071CF4FA
:1012B0000E94D20308958091140390911503821720
:1012C000930754F480911603909117032817390758
:1012D0001CF40E94BA0308958091100390911103A9
:1012E0008217930754F480911203909113032817E7
:1012F00039071CF40E94A203089580910C03909179
:101300000D0382179307DCF480910E0390910F0375
:1013100028173907A4F480910603813019F48093CB
:10132000A60304C0843011F41092A6038091A60392
:10133000813019F40E94810308950E94600308958A
:101340008AE194E06BE174E00E94AD1D892B51F0BD
:1013500060911F04709120048091210490912204D7
:101360000E94EA060E945A088091C9038130E9F57B
:101370000E94540E2091DE033091DF034091E00380
:101380005091E103621B730B840B950B653671055D
:101390008105910550F10E94540E6093DE03709315
:1013A000DF038093E0039093E103E0912D03F0E0ED
:1013B000E45EFC4F608186E070E00E94220F209185
:1013C0002D03222311F02E3059F480912B0390919C
:1013D0002C03909581959F4F90932C0380932B0322
:1013E00080912B03820F80932D038091CA0381305B
:1013F000C9F40E94540E2091E2033091E30340911E
:10140000E4035091E503621B730B840B950B655F3E
:1014100071408040904030F01092CA038CE060E050
:101420000E94C10F84E10E94000F9093D503809326
:10143000D4032091D2033091D3032817390714F134
:101440008091D1038823F1F484E060E00E94C10F11
:10145000209105032F7B87E063E041E00E94681044
:1014600084E061E00E94C10F89E060E00E94C10F4A
:1014700086E060E00E94C10F68EE73E080E090E0DB
:101480000E94620E0E94540E2091E6033091E70301
:101490004091E8035091E903621B730B840B950B99
:1014A000615D77408040904000F10E94540E60934F
:1014B000E6037093E7038093E8039093E903609158
:1014C000D4037091D503882777FD8095982F0E94CB
:1014D000E31F24EA30E74DE75FE30E9493200E9478
:1014E000B01F7093D3036093D2030895CF93DF931B
:1014F00089E294E00E94021589E294E060E142E012
:1015000020E00E944B1589E294E062E972E00E94BB
:10151000191489E294E060E041E00E94141589E228
:1015200094E061EA72E00E94191468EE73E080E0D2
:1015300090E00E94620E89E294E00E94431589E2E5
:1015400094E06CEA72E00E94191489E294E060E091
:1015500041E00E94141589E294E06CEB72E00E9475
:10156000191468EE73E080E090E00E94620E89E258
:1015700094E00E9443158091D103882349F5CFE080
:10158000D0E089E294E060E040E00E94141589E236
:1015900094E06CEC72E00E94191489E294E060E03F
:1015A00041E00E94141589E294E0BE014AE050E057
:1015B0000E94061489E294E06DED72E00E94191415
:1015C00068EE73E080E090E00E94620E2197C9F619
:1015D000DF91CF910895EF92FF920F931F93DF93C6
:1015E000CF93CDB7DEB7A8970FB6F894DEBF0FBE86
:1015F000CDBF85E061E00E94820F83E061E00E9440
:10160000820F84E061E00E94820F87E061E00E9427
:10161000820F89E061E00E94820F89E061E00E9410
:10162000C10F86E061E00E94820F86E061E00E94C7
:10163000C10F88E060E00E94820F8AE061E00E94B2
:10164000820F8BE061E00E94820F8CE061E00E94DB
:10165000820F83E162E00E94820F84E160E00E94D9
:10166000820F65E070E080E090E00E94620E84E00E
:1016700060E00E94C10F87E063E041E02091050334
:101680000E94681084E061E00E94C10F85E060E084
:101690000E94C10F64E670E080E090E00E94620E5C
:1016A00085E061E00E94C10F64E670E080E090E0B8
:1016B0000E94620E85E060E00E94C10F8FEC94E012
:1016C00040E855E260E070E00E94341185E090E06F
:1016D00068EC73E00E941C028091C8038A3509F40B
:1016E00004C181EF94E060E070E041E00E943614B4
:1016F00081EF94E061E070E0409107030E943614AE
:1017000081EF94E062E070E0409108030E9436149B
:1017100081EF94E063E070E0409109030E94361489
:1017200081EF94E064E070E040910A030E94361477
:1017300081EF94E065E070E04AE50E94361481EFA5
:1017400094E066E070E040E00E94361481EF94E09F
:1017500067E070E041E00E94361481EF94E068E0B9
:1017600070E042E00E94361481EF94E069E070E09E
:1017700043E00E94361481EF94E06AE070E040910B
:10178000D1030E94361482EE90EDA1EEB7E7898373
:101790009A83AB83BC8382E390E0BE016F5F7F4F8F
:1017A0000E94EF018FEF9FEFAFEFBFEF8D839E831E
:1017B000AF83B887E5E0EE2EF12CEC0EFD1E66E35C
:1017C00070E08B010F5F1F4FF70141917F0181EFA7
:1017D00094E00E943614B8010A33110591F782EEA5
:1017E00090EBA1EEB7E789879A87AB87BC878AE33E
:1017F00090E0BE01675F7F4F0E94EF018FEF9FEF88
:10180000AFEFBFEF8D879E87AF87B88B7DE0E72E68
:10181000F12CEC0EFD1E6EE370E08B010F5F1F4F8D
:10182000F70141917F0181EF94E00E943614B801E5
:101830000234110591F782EE90EEA1EEB7E7898BA5
:101840009A8BAB8BBC8B82E490E0BE016F5E7F4FC6
:101850000E94EF0182EE90E1A1EEB7E78D8B9E8BA7
:10186000AF8BB88F86E490E0BE016B5E7F4F0E9425
:10187000EF0182EE9AEBA1EEB7E7898F9A8FAB8FDB
:10188000BC8F8AE490E0BE01675E7F4F0E94EF014B
:1018900082EE9AE7A1EEB7E78D8F9E8FAF8FB8A348
:1018A0008EE490E0BE01635E7F4F0E94EF0187E708
:1018B00097E7A7E7B7E789A39AA3ABA3BCA382E501
:1018C00090E0BE016F5D7F4F0E94EF0182EE90E4D9
:1018D000A1EEB7E78DA39EA3AFA3B8A786E590E0DE
:1018E000BE016B5D7F4F0E94EF0180E090E066E0FB
:1018F00073E00E941C0281E090E067E073E00E94C8
:101900001C0282E090E068E073E00E941C0283E029
:1019100090E069E073E00E941C0284E090E06AE0DD
:1019200073E00E941C0286E090E06DEC73E00E9480
:101930001C0287E090E06EEC73E00E941C0288E0DD
:1019400090E06FEC73E00E941C0289E090E060ED93
:1019500073E00E941C028AE090E061ED73E00E9457
:101960001C0282E390E06EEE73E00E942C0286E39C
:1019700090E062EF73E00E942C028AE390E066EF51
:1019800073E00E942C028EE390E06AEF73E00E9405
:101990002C0282E490E06EEF73E00E942C0286E459
:1019A00090E062E074E00E942C028AE490E066E03D
:1019B00074E00E942C028EE490E06AE074E00E94E1
:1019C0002C0282E590E06EE074E00E942C0286E535
:1019D00090E062E174E00E942C028FEC94E06CEEE7
:1019E00072E00E941C148FEC94E0609106034AE0C0
:1019F00050E00E9494138FEC94E06091070342E062
:101A000050E00E9494138FEC94E06091080342E050
:101A100050E00E9494138FEC94E06091090342E03F
:101A200050E00E9494138FEC94E060910A0342E02E
:101A300050E00E9494134091EE035091EF036091A7
:101A4000F0037091F1038FEC94E020E130E00E940C
:101A5000F2134091F2035091F3036091F4037091FB
:101A6000F5038FEC94E020E130E00E94F213409106
:101A7000F6035091F7036091F8037091F9038FEC2E
:101A800094E020E130E00E94F2134091FA0350917B
:101A9000FB036091FC037091FD038FEC94E020E167
:101AA00030E00E94F2134091FE035091FF036091D9
:101AB0000004709101048FEC94E020E130E00E947A
:101AC000F213409102045091030460910404709158
:101AD00005048FEC94E020E130E00E94F213409185
:101AE00006045091070460910804709109048FEC7A
:101AF00094E020E130E00E94F21340910A045091FA
:101B00000B0460910C0470910D048FEC94E020E1C3
:101B100030E00E94F21340910E0450910F04609146
:101B20001004709111048FEC94E020E130E00E94E9
:101B3000F2134091120450911304609114047091B7
:101B400015048FEC94E020E130E00E94F2130E9433
:101B5000760A8AE194E00E94C41E809106038230D6
:101B600069F0833018F4813099F405C0833049F06E
:101B7000843071F409C08091070308C08091080384
:101B800005C08091090302C080910A038093050378
:101B900084E10E94000FAA2797FDA095BA2FBC01EF
:101BA000CD010E94E31F28E431EE4AE75FE30E9483
:101BB00093200E94B01F7093D3036093D20384E0FC
:101BC00060E00E94C10F87E063E041E020910503DF
:101BD0000E94681084E061E00E94C10F0E942D0302
:101BE000A8960FB6F894DEBF0FBECDBFCF91DF91A0
:101BF0001F910F91FF90EF900895CF93DF930E9474
:101C0000C50E0E94EB0AC6EED0E10E94A009209703
:101C1000E1F30E94E610F9CF1F920F920FB60F92D8
:101C200011242F933F938F939F93AF93BF938091F2
:101C3000420490914304A0914404B0914504309132
:101C400046040196A11DB11D232F2D5F2D3720F0D5
:101C50002D570196A11DB11D209346048093420487
:101C600090934304A0934404B093450480913E04B0
:101C700090913F04A0914004B09141040196A11DB0
:101C8000B11D80933E0490933F04A0934004B09311
:101C90004104BF91AF919F918F913F912F910F90F0
:101CA0000FBE0F901F9018958FB7F89420914204A3
:101CB0003091430440914404509145048FBFB901D1
:101CC000CA0108959B01AC017FB7F89480913E044E
:101CD00090913F04A0914004B091410466B5A89B47
:101CE00005C06F3F19F00196A11DB11D7FBFBA2F2E
:101CF000A92F982F8827860F911DA11DB11D62E085
:101D0000880F991FAA1FBB1F6A95D1F7BC012DC070
:101D1000FFB7F89480913E0490913F04A091400455
:101D2000B0914104E6B5A89B05C0EF3F19F00196BC
:101D3000A11DB11DFFBFBA2FA92F982F88278E0F85
:101D4000911DA11DB11DE2E0880F991FAA1FBB1FA5
:101D5000EA95D1F7861B970B885E9340C8F2215015
:101D600030404040504068517C4F211531054105BD
:101D7000510571F60895019739F0880F991F880F62
:101D8000991F02970197F1F70895789484B58260BE
:101D900084BD84B5816084BD85B5826085BD85B50F
:101DA000816085BDEEE6F0E0808181608083E1E8BE
:101DB000F0E01082808182608083808181608083F6
:101DC000E0E8F0E0808181608083E1EBF0E08081F9
:101DD00084608083E0EBF0E0808181608083EAE7CB
:101DE000F0E0808184608083808182608083808154
:101DF000816080838081806880831092C100089513
:101E0000982F8E3008F09E5097708091A70382958E
:101E1000880F880F807C892B80937C0080917A00CA
:101E2000806480937A0080917A0086FDFCCF2091B7
:101E3000780040917900942F80E030E0282B392BF6
:101E4000C90108951F93CF93DF93182FEB0161E031
:101E50000E94820F209709F44AC0CF3FD10509F4B0
:101E600049C0E12FF0E0E255FF4F84918330C1F08B
:101E7000843028F4813051F08230B1F50CC08630C6
:101E800019F1873049F1843079F514C084B5806840
:101E900084BDC7BD33C084B5806284BDC8BD2EC0BB
:101EA00080918000806880938000D0938900C093E7
:101EB000880024C080918000806280938000D0934D
:101EC0008B00C0938A001AC08091B0008068809314
:101ED000B000C093B30012C08091B00080628093C4
:101EE000B000C093B4000AC0C038D1051CF4812FE3
:101EF00060E002C0812F61E00E94C10FDF91CF91AD
:101F00001F910895CF93DF93482F50E0CA01865662
:101F10009F4FFC0134914A575F4FFA018491882307
:101F200069F190E0880F991FFC01E859FF4FA591D6
:101F3000B491FC01EE58FF4FC591D491662351F442
:101F40002FB7F8948C91932F909589238C93888147
:101F500089230BC0623061F42FB7F8948C91932FD2
:101F6000909589238C938881832B88832FBF06C00B
:101F70009FB7F8948C91832B8C939FBFDF91CF9167
:101F80000895482F50E0CA0182559F4FFC012491CB
:101F9000CA0186569F4FFC0194914A575F4FFA0140
:101FA0003491332309F440C0222351F1233071F0DE
:101FB000243028F42130A1F0223011F514C026304D
:101FC000B1F02730C1F02430D9F404C080918000F2
:101FD0008F7703C0809180008F7D8093800010C038
:101FE00084B58F7702C084B58F7D84BD09C0809190
:101FF000B0008F7703C08091B0008F7D8093B000D8
:10200000E32FF0E0EE0FFF1FEE58FF4FA591B491C4
:102010002FB7F894662321F48C919095892302C000
:102020008C91892B8C932FBF0895682F70E0CB0182
:1020300082559F4FFC012491CB0186569F4FFC0196
:1020400044916A577F4FFB019491992319F420E042
:1020500030E03CC0222351F1233071F0243028F4C9
:102060002130A1F0223011F514C02630B1F0273014
:10207000C1F02430D9F404C0809180008F7703C070
:10208000809180008F7D8093800010C084B58F7711
:1020900002C084B58F7D84BD09C08091B0008F7768
:1020A00003C08091B0008F7D8093B000892F90E0B5
:1020B000880F991F84589F4FFC01A591B4918C9172
:1020C00020E030E0842311F021E030E0C9010895E0
:1020D000BF92CF92DF92EF92FF920F931F93CF9315
:1020E000DF93E82EF62EB42EC7E0D0E0022F10E0EA
:1020F00087E0C82ED12CBB2059F4B6016C1B7D0B98
:10210000C80102C0959587956A95E2F7BC0107C0A2
:10211000B8010C2E02C0759567950A94E2F76170BC
:102120008E2D0E94C10F8F2D61E00E94C10F8F2D57
:1021300060E00E94C10F21979FEFCF3FD907D9F6EA
:10214000DF91CF911F910F91FF90EF90DF90CF9093
:10215000BF90089508951F920F920FB60F92112409
:102160002F933F934F938F939F93EF93FF93809180
:10217000C00082FD1DC04091C600209187043091AF
:1021800088042F5F3F4F2F733070809189049091A6
:102190008A042817390771F0E0918704F0918804C8
:1021A000E95BFB4F4083309388042093870402C08F
:1021B0008091C600FF91EF919F918F914F913F9138
:1021C0002F910F900FBE0F901F901895E091DB0498
:1021D000F091DC04E05CFF4F81919191208131818D
:1021E000821B930B8F739070892B11F00E94AA10A1
:1021F00008951F920F920FB60F9211242F933F93C1
:102200008F939F93EF93FF932091CB043091CC0455
:102210008091CD049091CE042817390731F4809134
:10222000C1008F7D8093C10014C0E091CD04F09176
:10223000CE04E557FB4F20818091CD049091CE04D0
:1022400001968F7390709093CE048093CD04209369
:10225000C600FF91EF919F918F913F912F910F9029
:102260000FBE0F901F901895AF92BF92DF92EF9222
:10227000FF920F931F93CF93DF93EC017A018B01B1
:10228000DD24403081EE580780E0680780E0780761
:1022900011F0DD24D39491E0A92EB12CEC89FD89B5
:1022A000DD2069F0C50108A002C0880F991F0A94BB
:1022B000E2F7808360E079E08DE390E005C0108272
:1022C00060E874E88EE190E0A80197010E94152172
:1022D00021503040404050405695479537952795BE
:1022E00080E12030380720F0DD2011F0DD24D6CF4A
:1022F000E889F9893083EA89FB89208319A2EE896C
:10230000FF89408121E030E0C9010C8C02C0880FB8
:10231000991F0A94E2F7482B4083EE89FF89408198
:10232000C9010D8C02C0880F991F0A94E2F7482B4F
:102330004083EE89FF894081C9010E8C02C0880F5D
:10234000991F0A94E2F7482B4083EE89FF89808128
:102350000F8C02C0220F331F0A94E2F72095282326
:102360002083DF91CF911F910F91FF90EF90DF902D
:10237000BF90AF900895DC011C96ED91FC911D97E4
:10238000E05CFF4F2191319180819181281B390BB5
:102390002F733070C9010895DC011C96ED91FC91FA
:1023A0001D97E05CFF4F20813181E054F040DF0158
:1023B000AE5BBF4F8D919C9111972817390719F487
:1023C0002FEF3FEF07C08D919C91E80FF91F80819F
:1023D000282F30E0C9010895DC011C96ED91FC9195
:1023E0001D97E05CFF4F20813181E054F040DF0118
:1023F000AE5BBF4F8D919C9111972817390719F447
:102400002FEF3FEF10C08D919C911197E80FF91FAE
:1024100020818D919C91119701968F7390701196E8
:102420009C938E9330E0C9010895DC0191968C91C4
:102430009197882339F05496ED91FC9155978081BE
:1024400086FFF9CF91961C920895CF93DF93EC010C
:10245000EE85FF85E05CFF4F20813181E054F04044
:102460002F5F3F4F2F733070DF01AE5BBF4F8D91F9
:102470009C91119728173907D1F3E05CFF4F8081B9
:102480009181E054F040E80FF91F6083EE85FF85ED
:10249000E05CFF4F31832083EE89FF89208181E05A
:1024A00090E00F8C02C0880F991F0A94E2F7282B46
:1024B000208381E089A3EC89FD8980818064808309
:1024C00081E090E0DF91CF9108951092D2041092B4
:1024D000D10488EE93E0A0E0B0E08093D304909321
:1024E000D404A093D504B093D6048CEA93E09093DF
:1024F000D0048093CF0487E494E09093DC0480932D
:10250000DB048BE894E09093DE048093DD0485EC9B
:1025100090E09093E0048093DF0484EC90E090934B
:10252000E2048093E10480EC90E09093E4048093D3
:10253000E30481EC90E09093E6048093E50482EC60
:1025400090E09093E8048093E70486EC90E0909309
:10255000EA048093E90484E08093EB0483E08093B1
:10256000EC0487E08093ED0485E08093EE0481E045
:102570008093EF040895CF92DF92EF92FF920F9332
:102580001F93CF93DF937C016B018A01C0E0D0E001
:102590000FC0D6016D916D01D701ED91FC910190B5
:1025A000F081E02DC7010995C80FD91F01501040D7
:1025B0000115110571F7CE01DF91CF911F910F9198
:1025C000FF90EF90DF90CF900895EF92FF920F93DE
:1025D0001F938C01DC01ED91FC910190F081E02DC5
:1025E0006DE009957C01D801ED91FC910190F0819D
:1025F000E02DC8016AE009959C012E0D3F1DC9011F
:102600001F910F91FF90EF900895CF93DF93EC010E
:102610006115710519F420E030E00FC0DB010D9069
:102620000020E9F71197A61BB70BE881F98102801A
:10263000F381E02DAD0109959C01C901DF91CF9196
:1026400008954F925F927F928F929F92AF92BF9226
:10265000CF92DF92EF92FF920F931F93DF93CF936E
:10266000CDB7DEB7A1970FB6F894DEBF0FBECDBFD2
:102670002C01742ECB01223008F42AE019A231E299
:10268000C32ED12CCC0EDD1E822E9924AA24BB246D
:10269000672D752FA50194010E94152179018A01EA
:1026A000C801B701A50194010E94F620472D461BE1
:1026B0000894C108D1084A3014F4405D01C0495C57
:1026C000F6014083E114F1040105110521F07E2C8F
:1026D0005F2DC801DDCFC201B6010E940513A1968E
:1026E0000FB6F894DEBF0FBECDBFCF91DF911F9123
:1026F0000F91FF90EF90DF90CF90BF90AF909F90A1
:102700008F907F905F904F900895DC0121153105E7
:1027100041F4ED91FC910190F081E02D642F099539
:1027200008950E9421130895CF92DF92EF92FF92B5
:102730000F931F936C01E62E9A01FF2400E010E036
:10274000B801A7010E9485138C01C6010E94E51201
:10275000080F191FC8011F910F91FF90EF90DF9094
:10276000CF900895CF92DF92EF92FF920F931F9335
:10277000CF93DF93EC016A017B012115310541F410
:10278000E881F9810190F081E02D642F09951FC047
:102790002A303105D1F477FF17C0E881F981019023
:1027A000F081E02D6DE209958C0144275527BA018F
:1027B0004C195D096E097F09CE012AE00E942113A0
:1027C0009801280F391F04C02AE00E9421139C01A0
:1027D000C901DF91CF911F910F91FF90EF90DF9092
:1027E000CF900895EF92FF920F931F937C010E9468
:1027F000B2138C01C7010E94E5129C01200F311F0A
:10280000C9011F910F91FF90EF900895EF92FF92F1
:102810000F931F937B019A010027F7FC0095102F5F
:10282000B801A7010E94B2131F910F91FF90EF9082
:1028300008950E9405130895EF92FF920F931F933E
:102840007C010E9405138C01C7010E94E512080F4C
:10285000191FC8011F910F91FF90EF900895F999EA
:10286000FECF72BD61BDF89A80B50895F999FECF8B
:102870001FBA72BD61BD40BD0FB6F894FA9AF99ABD
:102880000FBE08950F931F938C01FC01868160E0B9
:102890000E94C10F81E090E00E94BB0EF80186818A
:1028A00061E00E94C10F81E090E00E94BB0EF80140
:1028B000868160E00E94C10F84E690E00E94BB0E1A
:1028C0001F910F910895CF92DF92EF92FF920F9395
:1028D0001F93CF93DF93D82EC92E282F392FC901EC
:1028E0008C01C0E0D0E0E62EFF24F801878161E092
:1028F0000E94820FB7010C2E02C0759567950A944D
:10290000E2F76170F80187810E94C10F21960F5F85
:102910001F4FC830D10549F78D2D9C2D0E944214C0
:10292000DF91CF911F910F91FF90EF90DF90CF90AB
:102930000895CF92DF92EF92FF920F931F93CF9360
:10294000DF93D82EC92E282F392FC9018C01C0E062
:10295000D0E0E62EFF24F801878161E00E94820F1B
:10296000B7010C2E02C0759567950A94E2F7617065
:10297000F80187810E94C10F21960F5F1F4FC4305D
:10298000D10549F78D2D9C2D0E944214DF91CF91E6
:102990001F910F91FF90EF90DF90CF9008951F93BC
:1029A000CF93DF93EC01162F8C81642F0E94C10F0F
:1029B0008D818F3F19F060E00E94C10F8F8584FFE9
:1029C00005C0CE01612F0E9463140EC0612F70E01C
:1029D00084E0759567958A95E1F7CE010E94991478
:1029E000CE01612F0E949914DF91CF911F9108951C
:1029F00041E00E94CF1481E090E0089540E00E9401
:102A0000CF140895FC016089862F8460808B6C60F0
:102A1000CF010E94FE140895FC0160896B7F608BDA
:102A200068600E94FE140895DF93CF93CDB7DEB7A0
:102A300028970FB6F894DEBF0FBECDBF9C01FE01F4
:102A40003196A0ECB3E088E00D9001928150E1F75F
:102A5000F9018389481710F0482F4150E42FF0E026
:102A6000EE0FFF1FEC0FFD1F8181680F6068C90129
:102A70000E94FE1428960FB6F894DEBF0FBECDBF9D
:102A8000CF91DF91089561E00E94FE1480ED97E000
:102A90000E94BB0E0895CF93DF93EC01423018F0F3
:102AA0008F8588608F874B8B1C8A222329F04130C9
:102AB00019F48F8584608F8780E593EC0E94BB0EAC
:102AC0008C8160E00E94C10F8E8160E00E94C10F86
:102AD0008D818F3F19F060E00E94C10F6F8564FD0A
:102AE0001DC0CE0163E00E94991484E991E10E9427
:102AF000BB0ECE0163E00E94991484E991E10E942B
:102B0000BB0ECE0163E00E94991486E990E00E941A
:102B1000BB0ECE0162E00E94991416C06062CE0125
:102B20000E94FE1484E991E10E94BB0E6F856062F1
:102B3000CE010E94FE1486E990E00E94BB0E6F85D4
:102B40006062CE010E94FE146F856062CE010E9419
:102B5000FE1484E0888BCE010E940215CE010E94F3
:102B6000431582E0898BCE0166E00E94FE14DF915E
:102B7000CF9108956F927F928F92AF92CF92EF9202
:102B80000F931F93DF93CF93CDB7DEB73C01162F82
:102B9000842FF301448325830683E782C086A186C0
:102BA00082869D8593879E8594879F859587988942
:102BB000968761E00E94820FF30185818F3F19F0B3
:102BC00061E00E94820FF301868161E00E94820F22
:102BD000112319F0F301178603C080E1F301878701
:102BE000C30160E141E020E00E944B15CF91DF91ED
:102BF0001F910F91EF90CF90AF908F907F906F903B
:102C000008958F92AF92CF92EF920F931F93CF932D
:102C1000DF93DC01362F542F722F102FAE2C8C2C0B
:102C200013961C921E9212978CEB93E011969C9334
:102C30008E9300D000D0EDB7FEB73196CDB7DEB79A
:102C40001982118212821382CD0161E0432F2FEF8E
:102C5000052FE72EC12E0E94BA150F900F900F90EE
:102C60000F90DF91CF911F910F91EF90CF90AF9088
:102C70008F900895DF92EF92FF920F931F93CF935F
:102C8000DF93EC01882777FD8095982F0E94E31F42
:102C90007B018C0120E030E040E45FE30E94932060
:102CA00020E030E048E452E40E94481F0E94B01F38
:102CB000C617D70714F4DD241CC0DD24C801B701F2
:102CC00020E030E040EA5FE30E94932020E030E023
:102CD00048E452E40E94481F20E030E040E85FE30F
:102CE0000E94E01E0E94B01F6C177D0714F0DD24C7
:102CF000D3948D2D90E0DF91CF911F910F91FF9094
:102D0000EF90DF9008956C597F4F0E943A16089516
:102D1000645670400E943A1608956093F20410922F
:102D2000F404089582E08093F3041092BF0508959F
:102D3000AF92BF92CF92DF92EF92FF920F931F93C9
:102D4000CF93DF936B01DB011A96CD91DC911B973A
:102D50008A819B8168E273E20E948316892B09F4C1
:102D600080C08091BF05843009F08CC08C819D812A
:102D70006AEC78E00E948816892B09F483C08E8162
:102D80009F8160E372E00E948316892B09F47AC068
:102D9000F601118610868FEF9FEFAFEFBFEF8483B0
:102DA0009583A683B78381E090E09183808354C0AC
:102DB0008C819D8164E971E10E948816892B09F458
:102DC00050C02696EE24FF24870123E0A22EB12CCA
:102DD0008881998160E372E00E948316892B09F44F
:102DE00040C08A819B8160E476E00E948816892B2E
:102DF00069F0EE0CFF1C001F111F81E090E0A0E0C5
:102E0000B0E0E82AF92A0A2B1B2B0CC08A819B818F
:102E100060E372E00E948816892B19F1EE0CFF1C0A
:102E2000001F111F249691E4A916B10429F0A2E015
:102E3000B0E0AA0EBB1ECCCF80E290E0F6019187F5
:102E40008087D6011496ED92FD920D931C931797EF
:102E500081E090E08D939C9321E030E040E050E0F1
:102E600004C020E030E040E050E0B901CA01DF9149
:102E7000CF911F910F91FF90EF90DF90CF90BF9077
:102E8000AF9008958091BF05843458F391CFAF92ED
:102E9000BF92CF92DF92EF92FF920F931F93CF9347
:102EA000DF936B018091BF058A3108F480C0DB019C
:102EB0001A96CD91DC911B9788819981845F91400E
:102EC00080F4FB01118610868FEF9FEFAFEFBFEF0D
:102ED00084839583A683B78389E090E09183808380
:102EE00061C08A819B8160E679E00E948316892B0C
:102EF00009F45DC02696EE24FF24870162E0A62E29
:102F0000B12C30C0229788819981229668E572E0C1
:102F10000E948816892B79F18881998160EB74E091
:102F20000E948316892B69F0EE0CFF1C001F111FF5
:102F300081E090E0A0E0B0E0E82AF92A0A2B1B2B00
:102F40000CC08881998168E572E00E948316892B04
:102F500071F1EE0CFF1C001F111FA2E0B0E0AA0EE1
:102F6000BB1E24968091BF0595012F5F3F4F90E0D7
:102F7000281739073CF2C501019795958795F60109
:102F8000918780870C971CF41186108610C0D6019B
:102F90001496ED92FD920D931C93179782E090E0AA
:102FA0008D939C9321E030E040E050E004C020E0AD
:102FB00030E040E050E0B901CA01DF91CF911F91AC
:102FC0000F91FF90EF90DF90CF90BF90AF9008955A
:102FD000AF92BF92CF92DF92EF92FF920F931F9327
:102FE000CF93DF936B018091BF058A3108F489C0CC
:102FF000DB011A96CD91DC911B97888199818052D3
:10300000934080F4FB01118610868FEF9FEFAFEFA6
:10301000BFEF84839583A683B78389E090E0918393
:1030200080836AC08A819B816CEA7DE00E9483165E
:10303000892B09F466C08C819D816CEA7DE00E9439
:103040008316892B09F45DC02896EE24FF2487019E
:10305000A3E0AA2EB12C30C02297888199812296B4
:1030600066EB73E00E948816892B79F1888199813B
:1030700060E679E00E948316892B69F0EE0CFF1C54
:10308000001F111F81E090E0A0E0B0E0E82AF92ADB
:103090000A2B1B2B0CC0888199816CEB72E00E947B
:1030A0008316892B71F1EE0CFF1C001F111FA2E08B
:1030B000B0E0AA0EBB1E24968091BF0595012F5F3C
:1030C0003F4F90E0281739073CF2C50101979595CD
:1030D0008795F601918780870C971CF411861086DE
:1030E00010C0D6011496ED92FD920D931C93179784
:1030F00089E090E08D939C9321E030E040E050E047
:1031000004C020E030E040E050E0B901CA01DF91A6
:10311000CF911F910F91FF90EF90DF90CF90BF90D4
:10312000AF9008956F927F928F929F92AF92BF92CD
:10313000CF92DF92EF92FF920F931F93CF93DF9383
:103140004B018091BF05823208F47AC0DB011A96E8
:10315000CD91DC911B978A819B816EE571E00E9485
:103160008316892B09F46CC036E0A32EB12CAC0E6B
:10317000BD1EEE24FF24870122E0C22ED12C37C0D1
:10318000E5012297888199816EE977E00E94831694
:10319000892B69F0EE0CFF1C001F111F81E090E0ED
:1031A000A0E0B0E0E82AF92A0A2B1B2B0DC0888189
:1031B00099816EEE72E00E948316892B09F440C05B
:1031C000EE0CFF1C001F111FD5018D919C916EE527
:1031D00071E00E948816E4E0F0E0AE0EBF1E892B7D
:1031E00011F463010FC022E030E0C20ED31E36019D
:1031F0000894611C711C8091BF0590E068167906E7
:103200000CF4BECFC601019795958795D401199608
:103210009C938E93189740972CF419961C921E92AB
:1032200018970EC0F401E482F582068317838AE0C2
:1032300090E09183808321E030E040E050E004C0E2
:1032400020E030E040E050E0B901CA01DF91CF91C9
:103250001F910F91FF90EF90DF90CF90BF90AF90B4
:103260009F908F907F906F9008956F927F928F9232
:103270009F92AF92BF92CF92DF92EF92FF920F9305
:103280001F93CF93DF93FB013A0159016801DA01E3
:103290002D913C91848595852817390724F071E09C
:1032A000E72EF12C56C0C901880F991F0284F385BF
:1032B000E02DE80FF91F80819181982E892E20FD45
:1032C00006C00CE91FEF51E0E52EF12C04C004E626
:1032D00010E0EE24FF24B8016C0D7D1D892D982D82
:1032E0000E943A16892B19F021E030E020C0E60157
:1032F000CC0FDD1FB8016C0F7D1F892D982D0E940A
:103300003A16892B19F022E030E011C0CC0DDD1DFA
:103310000C0F1D1F892D982DB8010E943A16892B7C
:1033200021F4EE24EA94FE2C14C023E030E0F501F1
:1033300080819181019691838083821793074CF05D
:1033400011821082D3018D919C91119701968D93DA
:103350009C93C701DF91CF911F910F91FF90EF9048
:10336000DF90CF90BF90AF909F908F907F906F90A5
:1033700008952F923F924F925F926F927F928F9219
:103380009F92AF92BF92CF92DF92EF92FF920F93F4
:103390001F93DF93CF9300D000D000D0CDB7DEB71E
:1033A0001C015B018091BF058D3008F47EC081E077
:1033B00090E09A8389831C821B82A3E08A2E912C41
:1033C0008C0E9D1EC1012E010894411C511CA201AE
:1033D000940109E713E00E943519892B09F065C0B3
:1033E000C101B501A20194010E943519019709F0AC
:1033F0005CC0C101B501A20194010E943519892B5D
:1034000009F053C0CC24DD24760166247724C4015E
:103410008D829E832FC0C101B501A2012D813E8105
:1034200009E713E00E9435194C01C101B501A20161
:103430002D813E810E94351921E08216910479F494
:10344000892B99F5CC0CDD1CEE1CFF1C81E090E073
:10345000A0E0B0E0C82AD92AEA2AFB2A08C08928B5
:1034600021F5019711F5CC0CDD1CEE1CFF1C089416
:10347000611C711C8091BF0590E029813A81281759
:1034800039074CF2D50119967C926E921897F50186
:10349000C482D582E682F78283E090E091838083C4
:1034A00021E030E040E050E004C020E030E040E0C7
:1034B00050E0B901CA0126960FB6F894DEBF0FBEE0
:1034C000CDBFCF91DF911F910F91FF90EF90DF90D3
:1034D000CF90BF90AF909F908F907F906F905F90B4
:1034E0004F903F902F9008952F923F924F925F926E
:1034F0006F927F928F929F92AF92BF92CF92DF9204
:10350000EF92FF920F931F93DF93CF93CDB7DEB768
:1035100028970FB6F894DEBF0FBECDBF1C014B013C
:10352000DB011C968D919C911D97181619060CF0C5
:10353000C4C081E090E09A8389831A960D911C9112
:103540001B97F801828193816AE67AE00E948316D4
:10355000892B09F4B2C082E090E09A838983D80174
:1035600014968D919C91159769E773E00E948816D7
:10357000892B09F4A2C083E090E09A8389831C829E
:103580001B8203E0A02EB12CAC0EBD1EC101B40104
:103590003E010894611C711CA30195010CEB11E024
:1035A0000E943519892B09F088C0C101B401A3011B
:1035B00095010E943519019709F07FC0CC24DD24C4
:1035C000760144245524C501AD829E83C3016F82D8
:1035D000988756C0C101B4014F8158852D813E8125
:1035E0000CEB11E00E9435193C01B3E04B1651047D
:1035F00061F4C101B4014F8158852D813E810E9443
:1036000035196816790609F058C0C101B4014F8117
:1036100058852D813E810CEB11E00E9435195C012B
:10362000E3E04E16510459F4C101B4014F815885AD
:103630002D813E810E943519A816B906F1F5611455
:10364000710489F4F1E0AF16B104B9F5CC0CDD1CBE
:10365000EE1CFF1C81E090E0A0E0B0E0C82AD92A6F
:10366000EA2AFB2A0AC091E06916710431F5AB28F9
:1036700021F5CC0CDD1CEE1CFF1C0894411C511CD8
:1036800029813A81D4011C968D919C911D97281710
:1036900039070CF49FCF19965C924E921897F4015B
:1036A000C482D582E682F78284E090E091838083B1
:1036B00021E030E040E050E004C020E030E040E0B5
:1036C00050E0B901CA0128960FB6F894DEBF0FBECC
:1036D000CDBFCF91DF911F910F91FF90EF90DF90C1
:1036E000CF90BF90AF909F908F907F906F905F90A2
:1036F0004F903F902F9008956F927F928F929F925C
:10370000AF92BF92CF92DF92EF92FF920F931F93EF
:10371000CF93DF937B01FB01C285D3858A819B8197
:103720006EEA7DE00E948316892B09F474C08C81B7
:103730009D8166ED76E00E948316892B09F46BC0AB
:10374000269600E010E0DD24CC24992488247724F8
:10375000662483E0A82EB12C8881998166EF71E000
:103760000E948316892B09F456C08A819B816CEDD7
:1037700074E00E948816892B69F098014D2D5C2D0C
:10378000692D782D872D962D01E00E940C01022FC6
:10379000016013C08A819B8160E971E00E948816F4
:1037A000892BC9F198014D2D5C2D692D782D872D20
:1037B000962D01E00E940C01022F132FD42EC52E4E
:1037C000962E872E782E692E2496F1E6AF16B10438
:1037D00029F082E090E0A80EB91EBECFC801F70123
:1037E00004839583468357839801872D962D00E2A5
:1037F0000E948D00C901F7012283938387E090E046
:103800009183808380E390E09187808721E030E09E
:1038100040E050E004C020E030E040E050E0B9017A
:10382000CA01DF91CF911F910F91FF90EF90DF9030
:10383000CF90BF90AF909F908F907F906F900895A2
:103840008F929F92AF92BF92CF92DF92EF92FF92B0
:103850000F931F93CF93DF936B018091BF0582324B
:1038600009F0B2C0DB011A96CD91DC911B978A81D9
:103870009B8168E572E00E948316892B09F4A4C03D
:103880008091BF0521E030E0281B3109220F331F52
:10389000C21BD30B8881998168E572E00E94831670
:1038A000892B09F491C0F601118610868FEF9FEFE6
:1038B000AFEFBFEF84839583A683B78388E090E062
:1038C0009183808369C08091BF05813208F469C00B
:1038D000D50114968D919C91159760EA7FE00E9426
:1038E0008816892B09F45DC0E5012696EE24FF2495
:1038F000870133E0832E912C8881998168E572E0FD
:103900000E948316892B09F44CC08A819B8160E454
:1039100076E00E948816892B69F0EE0CFF1C001FD0
:10392000111F81E090E0A0E0B0E0E82AF92A0A2B1C
:103930001B2B0CC08A819B8166E272E00E94881674
:10394000892B79F1EE0CFF1C001F111FA2E0B0E0E3
:103950008A0E9B1E2496B3E28B16910469F6E6E468
:10396000F0E0AE0EBF1ED5018D919C9168E572E02E
:103970000E948316892BA9F080E190E0F6019187DF
:103980008087D6011496ED92FD920D931C931797A4
:1039900088E090E08D939C9321E030E040E050E09F
:1039A00004C020E030E040E050E0B901CA01DF91FE
:1039B000CF911F910F91FF90EF90DF90CF90BF902C
:1039C000AF909F908F900895F601A284B384D501A3
:1039D00012968D919C91139760E47FE10E9483166B
:1039E000892B09F070CFDDCF2F923F924F925F92DB
:1039F0006F927F928F929F92AF92BF92CF92DF92FF
:103A0000EF92FF920F931F93DF93CF9300D0CDB728
:103A1000DEB71B01FB0184859585863091052CF46A
:103A200020E030E040E050E081C0F5ECAF2EFDE951
:103A3000BF2EFCE1CF2EF1E8DF2EE6E04E2E512C1A
:103A40009C01220F331F3A83298359C0F101A285BB
:103A5000B385F2013497EA0FFB1FE080F180A40DDB
:103A6000B51D6D917C9180E090E00E94E11F3B01CB
:103A70004C0100E010E0C801B7010E94E11F7B018A
:103A80008C012DEC3CEC4CE45FE30E9493209B0105
:103A9000AC01C401B3010E94441F88231CF400E060
:103AA00010E018C0C401B3012DEC3CEC4CE45FE322
:103AB0000E9493209B01AC01C801B7010E94441FE2
:103AC000082F112707FD10950027110F001F112740
:103AD0000F5F1F4FC601B50123E931E040E051E01F
:103AE0000E94F6205801CC24B7FCC094DC2CA626FA
:103AF000B726C826D92622E030E0420E531E89811F
:103B00009A814816590609F0A1CFF101A482B58225
:103B1000C682D78280E290E0918780878FEF9FEF07
:103B20009183808321E030E040E050E0B901CA0198
:103B30000F900F90CF91DF911F910F91FF90EF9019
:103B4000DF90CF90BF90AF909F908F907F906F90BD
:103B50005F904F903F902F9008950F931F93CF93B6
:103B6000DF938C01EB0187EF94E09B878A8780913C
:103B7000BF058C871D868091F304853009F057C0FE
:103B8000C8010E949816611571058105910509F01B
:103B900051C0C801BE010E9447176115710581051A
:103BA000910509F047C0C801BE010E94E8176115E0
:103BB000710581059105F1F5C801BE010E949218B9
:103BC0006115710581059105A9F5C801BE010E9425
:103BD000B919611571058105910561F5C801BE012D
:103BE0000E94741A611571058105910519F5C801C6
:103BF000BE010E947C1B6115710581059105D1F400
:103C0000C801BE010E94201C611571058105910546
:103C100089F4C801BE010E94F41C6115710581057B
:103C2000910541F482E08093F3041092BF0520E0F7
:103C300030E002C021E030E0C901DF91CF911F9157
:103C40000F9108951F920F920FB60F9211242F9388
:103C50003F934F935F936F937F938F939F93AF9314
:103C6000BF93EF93FF938091F2040E941510482FA9
:103C70008091F5049091F60401969093F604809358
:103C8000F5048091BF05843618F085E08093F30435
:103C90008091F3048330D1F0843020F4823009F035
:103CA00059C006C0843071F1853009F053C04CC052
:103CB000442309F04FC08091F5049091F6048436B6
:103CC000910508F443C01092BF051EC0413009F0B1
:103CD00041C08091BF05E82FF0E02091F5043091BC
:103CE000F604EE0FFF1FEE50FB4F368325838F5FE8
:103CF0008093BF051092F6041092F50484E080933F
:103D0000F30428C04423B9F48091BF05E82FF0E004
:103D10002091F5043091F604EE0FFF1FEE50FB4F9B
:103D2000368325838F5F8093BF051092F60410922F
:103D3000F50483E0E4CF8091F5049091F604853694
:103D4000910540F085E0DBCF442321F41092F60486
:103D50001092F5048091F404882329F0442311F48F
:103D60002D9A01C02D98FF91EF91BF91AF919F9136
:103D70008F917F916F915F914F913F912F910F9014
:103D80000FBE0F901F901895F89492E09093B0009A
:103D90009093B10084E68093B300E2EBF0E01082F0
:103DA000E08190937000789482E08093F304109205
:103DB000BF058091F20460E00E94820F0895505880
:103DC000BB27AA270ED075C166D130F06BD120F089
:103DD00031F49F3F11F41EF45BC10EF4E095E7FB54
:103DE00051C1E92F77D180F3BA17620773078407AF
:103DF000950718F071F49EF58FC10EF4E0950B2E27
:103E0000BA2FA02D0B01B90190010C01CA01A0012C
:103E10001124FF27591B99F0593F50F4503E68F187
:103E20001A16F040A22F232F342F4427585FF3CFC8
:103E3000469537952795A795F0405395C9F77EF499
:103E40001F16BA0B620B730B840BBAF09150A1F0E2
:103E5000FF0FBB1F661F771F881FC2F70EC0BA0F68
:103E6000621F731F841F48F4879577956795B795F0
:103E7000F7959E3F08F0B3CF9395880F08F09927E8
:103E8000EE0F979587950895D9D008F481E00895AD
:103E90000CD00FC107D140F0FED030F021F45F3FCD
:103EA00019F0F0C0511139C1F3C014D198F399231E
:103EB000C9F35523B1F3951B550BBB27AA276217EE
:103EC0007307840738F09F5F5F4F220F331F441F33
:103ED000AA1FA9F333D00E2E3AF0E0E830D091506B
:103EE0005040E695001CCAF729D0FE2F27D0660F58
:103EF000771F881FBB1F261737074807AB07B0E897
:103F000009F0BB0B802DBF01FF2793585F4F2AF0AC
:103F10009E3F510568F0B6C000C15F3FECF3983E8C
:103F2000DCF3869577956795B795F7959F5FC9F709
:103F3000880F911D9695879597F90895E1E0660F92
:103F4000771F881FBB1F621773078407BA0720F00B
:103F5000621B730B840BBA0BEE1F88F7E095089574
:103F600004D06894B111D9C00895BCD088F09F578F
:103F700090F0B92F9927B751A0F0D1F0660F771FB5
:103F8000881F991F1AF0BA95C9F712C0B13081F095
:103F9000C3D0B1E00895C0C0672F782F8827B85FDD
:103FA00039F0B93FCCF3869577956795B395D9F7F6
:103FB0003EF490958095709561957F4F8F4F9F4F00
:103FC0000895E89409C097FB3EF49095809570950C
:103FD00061957F4F8F4F9F4F9923A9F0F92F96E955
:103FE000BB279395F695879577956795B795F111CA
:103FF000F8CFFAF4BB0F11F460FF1BC06F5F7F4F67
:104000008F4F9F4F16C0882311F096E911C0772378
:1040100021F09EE8872F762F05C0662371F096E881
:10402000862F70E060E02AF09A95660F771F881F50
:10403000DAF7880F9695879597F90895990F0008F4
:10404000550FAA0BE0E8FEEF16161706E807F9076A
:10405000C0F012161306E407F50798F0621B730B05
:10406000840B950B39F40A2661F0232B242B252B86
:1040700021F408950A2609F4A140A6958FEF811D29
:10408000811D089597F99F6780E870E060E00895CA
:104090009FEF80EC089500240A9416161706180660
:1040A0000906089500240A9412161306140605063C
:1040B0000895092E0394000C11F4882352F0BB0FCD
:1040C00040F4BF2B11F460FF04C06F5F7F4F8F4F30
:1040D0009F4F089557FD9058440F551F59F05F3F6B
:1040E00071F04795880F97FB991F61F09F3F79F01A
:1040F00087950895121613061406551FF2CF46959C
:10410000F1DF08C0161617061806991FF1CF86951D
:104110007105610508940895E894BB276627772701
:10412000CB0197F908950BD0C4CFB5DF28F0BADFE3
:1041300018F0952309F0A6CFABCF1124EECFCADF3C
:10414000A0F3959FD1F3950F50E0551F629FF001AA
:10415000729FBB27F00DB11D639FAA27F00DB11D03
:10416000AA1F649F6627B00DA11D661F829F22278C
:10417000B00DA11D621F739FB00DA11D621F839F13
:10418000A00D611D221F749F3327A00D611D231FE9
:10419000849F600D211D822F762F6A2F11249F5737
:1041A00050408AF0E1F088234AF0EE0FFF1FBB1F5A
:1041B000661F771F881F91505040A9F79E3F5105F9
:1041C00070F060CFAACF5F3FECF3983EDCF38695AA
:1041D00077956795B795F795E7959F5FC1F7FE2BA4
:1041E000880F911D9695879597F90895629FD00144
:1041F000739FF001829FE00DF11D649FE00DF11DA2
:10420000929FF00D839FF00D749FF00D659FF00D50
:104210009927729FB00DE11DF91F639FB00DE11D3D
:10422000F91FBD01CF0111240895A1E21A2EAA1B86
:10423000BB1BFD010DC0AA1FBB1FEE1FFF1FA21756
:10424000B307E407F50720F0A21BB30BE40BF50B53
:10425000661F771F881F991F1A9469F760957095DC
:10426000809590959B01AC01BD01CF010895EE0FA3
:0E427000FF1F0590F491E02D0994F894FFCF04
:10427E00507265737320424F4F5354206B65790013
:10428E002020202020204D55544520202020202065
:10429E00004761696E20366442004761696E2030C6
:1042AE006442004261737320455100466C61742074
:1042BE004551005B315D20005B325D20005B335D5C
:1042CE0020005B345D2000507265737320474149B6
:1042DE004E206B65790020507265737320535441E4
:1042EE004E444259005072657373204D555445200B
:1042FE006B657900507265737320494E5055542D7D
:10430E00206B657900507265737320494E50555479
:10431E002B206B657900507265737320564F4C2DB0
:10432E00206B657900666F722031207365636F6E46
:10433E006400507265737320564F4C2B206B657959
:10434E0000566F6C756D6520555020636F64653A2D
:10435E0000566F6C756D65205550207265706561E5
:10436E007420636F64653A00566F6C756D652044FA
:10437E004F574E20636F64653A00566F6C756D65CE
:10438E0020444F574E2072657065617420636F64D0
:10439E00653A00496E70757420555020636F6465E0
:1043AE003A00496E70757420444F574E20636F6407
:1043BE00653A004D75746520636F64653A005374F9
:1043CE00616E64627920636F64653A004761696E5D
:1043DE0020636F64653A004261737320426F6F739E
:1043EE007420636F64653A005265626F6F74696E14
:1043FE00672042756467696500495220636F646582
:10440E003A002042756467696520507265616D706F
:10441E0000202020202076302E3035004172647529
:10442E00696E6F20506F7765726564002062792027
:10443E005061726B7320417564696F0054756265CB
:10444E0073205761726D696E672055700020736519
:10445E00636F6E6473206C65667420004545505220
:10446E004F4D204C6F61642066726F6D20536574E2
:10447E0075702E68008001C8C4C2C180E000F800CB
:10448E00A601D2015D029D02110363030101020325
:10449E000406080B1017202D405B8001000E4344CC
:1044AE0020506C617965722000005475726E7461D3
:1044BE00626C652000004D503320506C617965723E
:1044CE00000044564420506C617965720000426CC5
:1044DE007565746F6F7468200000546170652044B8
:1044EE0065636B200000526164696F2020202020DC
:1044FE00000054656C65766973696F6E0000436FDA
:10450E006D707574657220200000536D6172747049
:10451E00686F6E6500000101000000002512BB12DD
:10452E00BB11EC11CC11151200000000F814BB12D7
:08453E000000400014005400CD
:00000001FF
